:020000040800F2
:100000000804002005010008D50B0008A50A000817
:10001000D10B0008BD080008D11200080000000044
:100020000000000000000000000000002D1000088B
:10003000FB08000800000000210F0008BB110008A9
:100040001F0100081F0100081F0100081F01000810
:100050001F0100081F0100081F0100081F01000800
:100060001F0100081F0100081F0100081F010008F0
:100070001F0100081F0100081F0100081F010008E0
:100080001F0100081F0100081F0100081F010008D0
:100090001F0100081F0100081F0100081F010008C0
:1000A0001F0100081F0100081F0100081F010008B0
:1000B0001F0100081F0100081F0100081F010008A0
:1000C0001F0100081F0100081F0100081F01000890
:1000D0001F0100081D1200081F0100081F01000871
:1000E0001F0100081F0100081F010008DFF810D0E1
:1000F00000F088FA00480047B11B0008AFF3008009
:10010000080400200648804706480047FEE7FEE74F
:10011000FEE7FEE7FEE7FEE7FEE7FEE7FEE7FEE7B7
:10012000BD110008ED0000082DE9F04D81EA03043F
:1001300004F0004B21F0004514464FF0000A23F074
:10014000004150EA050220D054EA01021DD0C5F357
:100150000A570246C5F31303C1F31300C1F30A564D
:1001600040F4801543F48013A7EB0608101BD64615
:1001700008F2FD3873EB050002D308F1010801E035
:1001800092185B41B8F1000F03DA00200146BDE888
:10019000F08D00204FF48011064684460EE0171BB8
:1001A00073EB050705D3121B63EB050306434CEA0B
:1001B000010C49084FEA300092185B4150EA0107F0
:1001C000EDD152EA030012D082EA040083EA05016D
:1001D000084305D0101BAB4106D20122002306E0E4
:1001E00000224FF0004302E06FF0010253101AEBBF
:1001F00006004CEB085110EB0A0041EB0B01BDE887
:10020000F04D00F058B80EB5C10F80EAE070084418
:10021000CA07002140F233438DE80E000A460B4620
:1002200000F058F803B000BD30B50B460146002081
:100230002022012409E021FA02F59D4205D303FAA8
:1002400002F5491B04FA02F52844151EA2F1010229
:10025000F1DC30BD2DE9F05F0546002092469B465B
:1002600088460646814640241BE0284641464746CC
:10027000224600F0E8F953465A46C01A914110D37D
:1002800011461846224600F0CFF92D1A67EB0108F7
:100290004F4622460120002100F0C6F917EB000965
:1002A0004E41201EA4F10104DFDC484631462A46B7
:1002B0004346BDE8F09F10B5141E73F1000408DA40
:1002C000401C41F1000192185B411A4301D120F01A
:1002D000010010BD2DE9F04D92469B4611B1B1FAD7
:1002E00081F202E0B0FA80F22032904600F09CF9F0
:1002F00004460F4640EA0A0041EA0B0153465A46BB
:10030000084313D0114653EA010019D0C8F1400246
:10031000504600F098F905460E465046594642466A
:1003200000F082F9084305D0012004E02046394658
:10033000BDE8F08D0020054346EAE0762C433743C4
:100340000A986305E40AA0EB08000022FD0A44EACB
:1003500047540A3002D500200146E9E7010510198B
:100360006941DDE9084500196941BDE8F04DA2E7A2
:100370002DE9FE4F804681EA0300C00F0C46009035
:1003800021F0004123F00045B8EB0200A94105D25D
:100390004046214690461C460B46024623F000404C
:1003A000104347D0270DC7F30A00C3F30A51029048
:1003B000401A019040286BDAC3F3130040F4801B0D
:1003C0000098924620B10023D2EB030A63EB0B0B9B
:1003D00001985946C0F14002504600F025F9064602
:1003E0000D4650465946019A00F03DF910EB0800C1
:1003F0006141002487EA115284EAE7731A4340D02E
:10040000009A62B3019A012A4FEA075215DC001BD9
:1004100061EB02014FF0004202EA0752CDE90042CF
:10042000001C41F5801132462B46FFF753FF03B005
:10043000BDE8F08F40462146F9E7001B61EB020161
:10044000001C41F5801300185B412018A2F500172D
:1004500047EB030140EAD570B6196D4111E06D0814
:100460004FEA360645EAC0754FEA0752001B61EBBA
:100470000201001C41F5801149084FEA30000019C3
:10048000514132462B4603B0BDE8F04FFFF713BF92
:100490000098012240000023D0EB020263EBE073DE
:1004A000009821464FEAE074B8EB000061EB0401CC
:1004B000E9E783F000435BE781F0004158E72DE96D
:1004C000FE4F81EA030404F0004421F0004100944F
:1004D0004FF0000B23F0004350EA01045ED052EAD3
:1004E00003045BD0C3F30A54C1F30A552C44A4F2AD
:1004F000F3340194A0FB0254C1F3130141F48011C1
:10050000C3F3130343F4801301FB024400FB034EC7
:10051000840A970A44EA815447EA8357A4FB076890
:1005200002958D0A05FB07854FEA932C04FB0C54BA
:100530002705029D4FEA065847EA1637B5EB08052E
:100540006EEB070C870E920E47EA811742EA831280
:10055000A7FB0201B6EB0B0164EB00042B0D43EA91
:100560000C335E1844EB1C50DA465146E7FB02019F
:10057000C5F313044FEA0B3343EA14534FEA043232
:10058000019C43EA0603A4F10C040294009CCDE90B
:1005900000B4FFF79FFE03B0BDE8F08F00200146D6
:1005A000F9E7C1F30A52C1F3130140F2FF3341F4FA
:1005B00080119A4202DA00200146704740F233432C
:1005C0009A42A2F2334202DC524200F03CB800F000
:1005D0002BB8000030B5041E71F1000404DB4FF0AD
:1005E0000044404264EB0101141E73F1000405DB7A
:1005F0001C464FF00043524263EB0403994208BF8C
:10060000904230BD064C074D06E0E06840F0010323
:1006100094E8070098471034AC42F6D3FFF76AFD20
:10062000E424000804250008202A04DB203A00FA0C
:1006300002F1002070479140C2F1200320FA03F339
:10064000194390407047202A04DB203A21FA02F037
:100650000021704721FA02F3D040C2F120029140FC
:10066000084319467047202A06DBCB17203A41FA87
:1006700002F043EAE07306E041FA02F3D040C2F12F
:100680002002914008431946704710B50121082007
:1006900000F048FC10BD000070B5002400F080FCA4
:1006A00000F086FC082000F0F8FC002513E000F0C4
:1006B0006FFC00F03DF9002602210B4800F0E0F944
:1006C00000B1012646EA4400C4B200F069FC00F023
:1006D0002FF9681CC5B2082DE9DB00F069FC082081
:1006E00000F0DBFC204670BD000C014070B58AB004
:1006F0000546002009900890079006900590049008
:100700000390002400260190029000F089F8502008
:1007100000F0F4F800BF09E040F2E45000F0BDFC46
:100720003046711C8EB2642800DB05E000F067F8EB
:1007300000F080008028EFD000BF00F0B5F97120F4
:1007400000F093F800F0FEFBFFF7A6FF09908DF88C
:10075000040000F06CFCFFF79FFF08908DF8050087
:1007600000F065FCFFF798FF07908DF8060000F099
:100770005EFCFFF791FF06908DF8070000F057FC34
:10078000FFF78AFF05908DF8080000F050FCFFF796
:1007900083FF04908DF8090000F049FCFFF77CFF0F
:1007A000039000F05FFC00F0F7FC062101A800F0C8
:1007B00087F89DF80C1088421CD19DF8200020433A
:1007C00004029DF81C00204304029DF81800044315
:1007D00024092C6000249DF81800204304029DF891
:1007E0001400204304029DF810000443C4F31304D2
:1007F0006C6002E00020286068600AB070BD10B52F
:1008000000F052F9712000F030F800F09BFBFFF788
:1008100043FF044600F026FC00F0BEFC204610BD5D
:1008200010B500F041F9702000F01FF800F08AFBCD
:10083000AC2000F01AF800F085FB332000F015F82A
:1008400000F080FB002000F010F800F07BFB00F0CF
:10085000A3FC10BD10B51B2000F064F91C2000F0B3
:1008600061F91E2000F05EF910BD2DE9F04104464B
:1008700025468027002613E000F092FB00F04AF89E
:1008800007EA050010B100F0A5FB01E000F0B8FB9D
:1008900000F07EFB00F03EF86806050E701CC6B244
:1008A000082EE9DB00F07CFB082000F0F6FB00F0EE
:1008B0007FFB082000F0F1FBBDE8F08100BFFEE700
:1008C00030B502460B46FF20002113E0555C68401E
:1008D00008240BE000F0800525B1312585EA4005AC
:1008E000E8B201E04506280E651EECB2002CF1DCF2
:1008F0004D1CE9B29942E9DB30BD704710B50446A2
:1009000003E04FF47A7000F0C8FB201EA4F101044C
:10091000F7D110BD00B5012000F01BF8012000F058
:1009200018F8012000F015F8012000F012F800BDC1
:1009300000B5012000F00DF8012000F00AF80120B8
:1009400000F007F8012000F004F8012000F001F8A1
:1009500000BD014604E0002000E0401C0228FCD35A
:100960000A1EA1F10101F6D170472DE9F0410246BE
:1009700000250026002000230024002791F803C052
:100980000CF00F0591F803C00CF0100CBCF1000F37
:1009900003D091F802C04CEA050591F800C0BCF103
:1009A000000F31D0146800202BE04FF0010C0CFA3E
:1009B00000F3B1F800C00CEA03069E4220D1830088
:1009C0004FF00F0C0CFA03F7BC4305FA03FC4CEA9A
:1009D000040491F803C0BCF1280F06D14FF0010CBC
:1009E0000CFA00FCC2F814C00AE091F803C0BCF194
:1009F000480F05D14FF0010C0CFA00FCC2F810C0F2
:100A0000401C0828D1D31460B1F800C0BCF1FF0F1E
:100A100034DD546800202EE000F1080C4FF001088E
:100A200008FA0CF3B1F800C00CEA03069E4221D18B
:100A300083004FF00F0C0CFA03F7BC4305FA03FCDC
:100A40004CEA040491F803C0BCF1280F05D100F171
:100A5000080C08FA0CF8C2F8148091F803C0BCF135
:100A6000480F07D100F1080C4FF0010808FA0CF804
:100A7000C2F81080401C0828CED35460BDE8F08135
:100A80000246002093680B400BB1012000E00020DB
:100A9000704741617047016170470AB1016100E030
:100AA0004161704700BFFEE710B500F093FA0820DF
:100AB00000F0F3FA00F06CFA082000F0EEFA00F013
:100AC0009FFA082000F0E9FA00F06AFA082000F026
:100AD000E4FA10BD08B5FFF7D8FD14208DF8030027
:100AE0000220ADF8000003208DF8020069460C4892
:100AF000FFF73BFF02210A48FFF7CDFF14208DF8D6
:100B000003000120ADF8000003208DF802006946C3
:100B10000348FFF72AFF01210148FFF7BCFF08BD8A
:100B2000000C01402DE9F0410446FFF7BDFF7020A5
:100B3000FFF79BFE00F006FA2046FFF796FE00F056
:100B400001FA0020FFF791FE00F0FCF90020FFF70A
:100B50008CFE00F0F7F900F01FFB0520FFF7CEFE3A
:100B6000FFF7A2FF7120FFF780FE00F0EBF9FFF71F
:100B700093FD074600F05BFAFFF78EFD054600F097
:100B800056FAFFF789FD064600F06CFA00F004FB08
:100B90000A20FFF7B3FEFFF787FF7020FFF765FE1F
:100BA00000F0D0F944F0B000FFF75FFE00F0CAF9A2
:100BB0002846FFF75AFE00F0C5F93046FFF755FE0C
:100BC00000F0C0F900F0E8FA00250026BDE8F08149
:100BD00000BFFEE7704770B500240EE000212046FC
:100BE00000F0E5F8002504E0002000F089F9681C19
:100BF000C5B2802DF8DB601CC4B2082CEEDB70BDE2
:100C000008B50121082000F08DF914208DF80300AB
:100C100003208DF802004FF48070ADF800006946A3
:100C20000A48FFF7A2FE4FF40070ADF800006946D5
:100C30000648FFF79AFE012211020448FFF72DFF34
:100C4000012251020148FFF728FF08BD000C0140B6
:100C500070B50546002415E08020204100EA050219
:100C60004FF400710E48FFF718FF012211020C48E3
:100C7000FFF713FF00224FF480710948FFF70DFFC3
:100C8000601CC4B2082CE7DB012211020448FFF704
:100C900004FF00224FF480710148FFF7FEFE70BD93
:100CA000000C014010B5012251020A48FFF7F5FE81
:100CB000012211020748FFF7F0FE00224FF40071F5
:100CC0000448FFF7EAFE00224FF480710148FFF765
:100CD000E4FE10BD000C014010B500224FF400717D
:100CE0000648FFF7DAFE012211020448FFF7D5FE9D
:100CF000012251020148FFF7D0FE10BD000C014057
:100D000070B5002406E0002500E06D1CB5F57A7F83
:100D1000FBD3641CB4F57A7FF5D3FFF771FFAE20E7
:100D200000F0DEF8D52000F0DBF8802000F0D8F8E5
:100D3000A82000F0D5F83F2000F0D2F8D32000F032
:100D4000CFF8002000F0CCF8402000F0C9F8A12036
:100D500000F0C6F8C82000F0C3F8DA2000F0C0F8B0
:100D6000122000F0BDF8812000F0BAF8CF2000F08A
:100D7000B7F8D92000F0B4F8F12000F0B1F8DB208A
:100D800000F0AEF8302000F0ABF8A42000F0A8F896
:100D9000A62000F0A5F88D2000F0A2F8142000F0A5
:100DA0009FF8AF2000F09CF8FFF715FF70BD70B5FD
:100DB00005460C4645F0B00000F092F8102141EADB
:100DC000141000F08DF804F00F0000F089F870BDE9
:100DD0002DE9F04106460F46904614257A1E6A43D7
:100DE000D1B2721E5206100EFFF7E1FF002409E097
:100DF00008EB8801124A02EBC101085D00F080F89F
:100E0000601CC4B2AC42F3DB7A1E6A43D1B2721EDC
:100E1000012303EB4202D0B2FFF7C9FF00240AE02E
:100E200008EB8801064A02EBC1016219885C00F0F8
:100E300067F8601CC4B2AC42F2DBBDE8F081000090
:100E4000542300082DE9F04105460E461746721E50
:100E5000D206110E6A1E5206100EFFF7A8FF0024DC
:100E600009E0A7F12001134A02EB0111085D00F02F
:100E700047F8601CC4B2082CF3DB721ED206110EB8
:100E80006A1E012303EB4202D0B2FFF790FF002459
:100E90000BE0A7F12001074A02EB011204F108015F
:100EA000505C00F02DF8601CC4B2082CF1DBBDE8EA
:100EB000F0810000641D00082DE9F04107460E4650
:100EC0001546002407E02A5D3019C1B23846FFF705
:100ED000B9FF601CC4B2285D0028F4D1BDE8F081E0
:100EE00010B50446FFF7DEFE7820FFF7B1FE0020C4
:100EF000FFF7AEFE2046FFF7ABFEFFF7EDFE10BD9D
:100F000010B50446FFF7CEFE7820FFF7A1FE402083
:100F1000FFF79EFE2046FFF79BFEFFF7DDFE10BDAC
:100F20007047000029B1064A92690243044B9A6156
:100F300004E0034A92698243014B9A6170470000C2
:100F40000010024010B5002400F02AF800F030F83C
:100F5000082000F0A2F800F01BF8082000F09DF82F
:100F600001E0601C84B202210848FFF789FD08B146
:100F7000642CF6DB642C01D1002010BD00F010F8C9
:100F8000082000F08AF80120F7E70000000C01407B
:100F900010B501210148FFF77EFD10BD000C014096
:100FA00010B501210148FFF774FD10BD000C014090
:100FB00008B504208DF803000220ADF800000320DE
:100FC0008DF8020069460248FFF7CFFC08BD00001B
:100FD000000C014008B514208DF803000220ADF884
:100FE000000003208DF8020069460448FFF7BDFCAD
:100FF00002210248FFF74FFD08BD0000000C014030
:1010000008B514208DF803000220ADF8000003207D
:101010008DF8020069460448FFF7A7FC0221024848
:10102000FFF737FD08BD0000000C0140704710B508
:10103000FFF7B6FF082000F030F8FFF7E1FF0820C7
:1010400000F02BF8FFF7A4FF082000F026F8FFF7C8
:10105000A7FF082000F021F8FFF7AAFF082000F002
:101060001CF810BD10B5FFF79BFF082000F015F825
:10107000FFF7B0FF082000F010F8FFF789FF082005
:1010800000F00BF8FFF78CFF082000F006F8FFF7E0
:10109000B7FF082000F001F810BD10B50446A41EEB
:1010A00003E00120FFF755FC641E002CF9D110BDB0
:1010B00010B500F001F810BD0CB5002001900090B3
:1010C0003348006840F480303149086000BF304840
:1010D000006800F4003000900198401C01900098D6
:1010E00018B90198B0F5A06FF1D12948006800F453
:1010F000003010B10120009001E000200090009825
:10110000012843D12348006840F0100021490860BD
:101110000846006820F0030008600846006840F0B8
:10112000020008601A48406819494860084640684B
:1011300048600846406840F480604860084640685F
:1011400020F47C1048600846406840F4E81048608D
:101150000846006840F08070086000BF0C480068D6
:1011600000F000700028F9D00948406820F0030022
:10117000074948600846406840F00200486000BFE8
:101180000348406800F00C000828F9D10CBD0000AD
:10119000001002400020024010B5FFF731FF082088
:1011A000FFF77BFFFFF7F4FE0820FFF776FFFFF75E
:1011B00011FF0820FFF771FF10BD704710B51348ED
:1011C000006840F001001149086008464068104975
:1011D00008400E494860084600680E4908400B491F
:1011E00008600846006820F48020086008464068CF
:1011F00020F4FE0048604FF41F008860FFF758FF9E
:101200004FF000600449086010BD0000001002406B
:101210000000FFF8FFFFF6FE08ED00E010B540F219
:101220002551094800F025F801280CD1064800F0A6
:101230004AF80649087001200549087040F2255116
:10124000014800F007F810BD003801400000002000
:101250000100002010B50022002340F66A14A142CC
:1012600000D100BF0A1201249440A3B2DC430480E1
:1012700010BD70B50246002400230025002040F672
:101280006A16B14200D100BFC1F3421501F01F033D
:10129000012606FA03F3012D02D19689334006E0B8
:1012A000022D02D1168A334001E0968A33400C1297
:1012B000012606FA04F41688344013B10CB101205B
:1012C00000E0002070BD01468888C0F30800704728
:1012D00000BFFEE70FB4084B10B504A902AA03989B
:1012E00000F0DEF8044602A9002000F05CFC204675
:1012F00010BC5DF814FB0000A71B000802E008C842
:10130000121F08C1002AFAD170477047002001E07F
:1013100001C1121F002AFBD1704700002DE9FF5FB9
:1013200082B00021DDE90430020DDDF840B0034356
:1013300018D044F61050A2F2FF324243151411980F
:1013400001281FD0A5EB0B00401C5FEA000A4FF0FC
:1013500000064E4FDFF83891B046504615D5CAF119
:10136000000413E0119801244AA3012801D16FEA77
:101370000B010298119AC0E90031C0E9024206B09F
:10138000BDE8F09FCBF10000DFE704460021404AB2
:10139000491842EB0450CDE9001012E0E00707D0F5
:1013A00032463B4640464946FFF789F88046894623
:1013B00032463B4610461946FFF781F806460F466F
:1013C0006410002CEAD1DDE90401DDE90023BAF163
:1013D000000F06DAFFF773F842464B46FFF76FF847
:1013E00005E0FEF7A1FE42464B46FEF79DFE044691
:1013F0000E460022284BFFF7EDF803D84FF0FF30E0
:10140000014607E00022254B20463146FEF7B0FF9B
:10141000FFF7C7F8102409E0002C0ADB0A2200239A
:10142000FEF718FF039B30321A55641E50EA010282
:10143000F2D1641C039AC4F111031444119A012AD5
:1014400003D0012208430DD10AE0084304D0002054
:101450004FF0110B119072E7A3EB0B056D1E0DE021
:101460005B4504DD4FF0000205F1010504E003DAFD
:101470004FF00002A5F10105002AECD00298119965
:10148000C0E90231C0E9004579E7000000001440DE
:101490000000F03F300000000000F0430000E03F9B
:1014A0002DE9FF4F95B09A46884606460025EEE1A5
:1014B000252877D100242746F94A0121039400E02A
:1014C000044316F8013F203B01FA03F01042F7D124
:1014D00030782A2811D06FF02F033078A0F1300235
:1014E000092A16D8039A44F0020402EB820203EBA5
:1014F00042021044761C0390EFE758F8042B039245
:10150000002A03DA504244F40054039044F00204E9
:10151000761C30782E2816D116F8010F44F00404FA
:101520002A280DD06FF02F023078A0F13003092B5C
:1015300009D807EB870302EB4303C718761CF3E7D0
:1015400058F8047B761C30786C280FD006DC4C28C9
:1015500017D068280DD06A2814D104E0742810D060
:101560007A280FD10DE044F400140AE044F480140A
:1015700001E044F440147278824202D104F58014F0
:10158000761C761C307866280BD013DC582877D070
:1015900009DC002875D04528F6D04628F4D0472825
:1015A0001AD193E118E0632835D0642879D06528F2
:1015B00012D18BE1702873D008DC6728F1D069283C
:1015C0006FD06E280DD06F2806D1ACE073282CD0D8
:1015D000752874D0782853D05246179990476D1CBF
:1015E00054E1C4F30250022809D003280DD0D8F8E2
:1015F000001004280DD00D6008F1040846E1D8F869
:101600000010EA17C1E90052F6E7D8F800100D8083
:10161000F2E70D70F0E718F8041B8DF800100020B9
:101620008DF80100EB46012003E058F804BB4FF0B1
:10163000FF3061074FF0000102D40DE009F1010114
:101640008946B9420FDA8145F8DB1BF809100029F9
:10165000F4D108E009F1010189468142FADB1BF867
:1016600009100029F6D103985346A0EB090721463B
:101670003846179A00F080FA284400EB090507E085
:1016800044E008E10DE01BF8010B52461799904722
:10169000B9F10109F7D2534621463846179AF2E0CC
:1016A00039E00A21C4F302524FF0000B0091022AE4
:1016B00006D058F8040BC117032A09D00AE023E02A
:1016C00008F1070020F00702F2E80201904605E069
:1016D00000B2C117042A01D140B2C117002906DAAD
:1016E0000A460021404261EB02012D2202E0220560
:1016F00004D52B228DF80420012203E0E20701D05B
:101700002022F7E7914657E00A2100E010214FF030
:10171000000B00910BE010214FF0000B44F004048B
:101720000827009103E008204FF0000B0090C4F35D
:101730000252022A05D058F8040B0021032A08D0CF
:1017400008E008F1070020F00702F2E802019046E5
:1017500003E080B2042A00D1C0B24FF00009220792
:101760002AD53278702A07D0DDF800C08CF0100C32
:101770005CEA0B0C05D00EE040228DF8042001221B
:1017800008E050EA010306D030238DF804308DF8CC
:10179000052002229146009B83F0080353EA0B03C5
:1017A0000AD150EA010201D1620705D530228DF835
:1017B00004204FF001097F1E3278582A04D039A244
:1017C0000C920CAA02920BE03BA2F9E75B46009A4E
:1017D000FEF740FD0C9B9B5C029A521E0292137016
:1017E00050EA0102F2D1029804A9081A00F1200B74
:1017F000600702D524F4803400E001275F4502DD54
:10180000A7EB0B0000E0002000EB0B010090039819
:101810004944401A0390E00306D453462146179AE0
:10182000039800F0A9F90544002706E001A85246F4
:10183000C05D179990476D1C7F1C4F45F6DBE00398
:101840000CD553462146179A039800F095F90544A4
:1018500004E030205246179990476D1C0099481EAD
:1018600000900029F5DC08E00298029952460078C1
:10187000491C0291179990476D1CBBF10001ABF117
:10188000010BF1DC5BE100F065F90544761C307872
:1018900000287FF40DAE19B02846BDE8F08F000097
:1018A0000928010030313233343536373839616236
:1018B00063646566000000003031323334353637FA
:1018C000383941424344454600000000600700D4D7
:1018D000062708F1070020F00700F0E80223804601
:1018E00003F0004C5FEA0C0001D097A009E020054E
:1018F00001D596A005E0E00701D095A001E0AFF288
:101900004C001390307823F0004365280CD006DC9F
:10191000452809D046281DD047287FD13BE06628BE
:1019200018D067287AD136E00021112F01DB112071
:1019300000E0781CCDE9000104A90CA8FFF7EEFC3B
:10194000DDE90D010C9A4FF0000B07F1010910922F
:1019500000914EE04FF000400097CDE9011004A93E
:101960000CA8FFF7DBFCDDE90D020C9B0F994FF093
:10197000000B91461093009211B9791C00EB0109FC
:10198000B7EB090003D4C0F1FF3B07F10109A9EB54
:101990000700019042E0012F00DA01270021112FFA
:1019A00001DD112000E03846CDE9000104A90CA8B2
:1019B000FFF7B4FCDDE90D010C9A00914FF0000B2C
:1019C000B946109221070FD4009A4A4503DA91468E
:1019D00001E0A9F10109B9F1010F05DD109AA9F1A2
:1019E0000101515C3029F4D0B84202DA10F1040F41
:1019F00003DA0121CDE9011010E0002803DC834463
:101A0000A9EB000102E0411C494500DD8946A0EB3D
:101A10000B00401C01904FF000400290200705D4BD
:101A20000198484502DB4FF0FF30019000208DF80F
:101A30004B0002980DF14B07B0F1004F25D002206A
:101A40000C902B200D90029800280CDA4042029056
:101A50002D200D9007E00A210298FEF7E5FB3031BA
:101A6000029007F8011D0C99481E0C900029F2DC29
:101A700002980028EFD1791E0D980870307800F098
:101A8000200040F0450007F8020D11A8C01BC01D42
:101A900002901398007800B1012000EB0901019831
:101AA00001EBE071029801440398401A401E039034
:101AB000E00306D453462146179A039800F05CF8D9
:101AC00005441398007818B15246179990476D1C39
:101AD000E00323D553462146179A039800F04CF8AB
:101AE00005441BE0BBF1000F07DB0098584504DDFF
:101AF0001098179910F80B0001E017993020524602
:101B0000904701980BF1010B401E05F10105019072
:101B100004D12E205246179990476D1CB9F100014F
:101B2000A9F10109DEDC05E017F8010B524617990F
:101B300090476D1C0299481E02900029F4DC534620
:101B40002146179A03989EE62D0000002B00000006
:101B5000200000002DE9F041044600251E461746EE
:101B6000880404D405E039462020B0476D1C641E6B
:101B7000F9D52846BDE8F0812DE9F041044600255D
:101B80001E469046C80301D5302700E02027880470
:101B900004D505E041463846B0476D1C641EF9D5B2
:101BA0002846BDE8F0810A68531C0B60107070472E
:101BB00088B0FEF78FFF4FF4FA70FEF79FFEFFF735
:101BC0009FF8FEF71CFE00F01800182804D0FEF75E
:101BD00041FE0A20FEF792FE042201210846FFF78B
:101BE000F7F8052202210120FFF7F2F8062203216F
:101BF0000120FFF7EDF8002201210220FFF7E8F8AD
:101C0000012202210846FFF7E3F8022203211046D1
:101C1000FFF7DEF8032204210220FFF7D9F807229C
:101C200001210320FFF7D4F8082202210320FFF747
:101C3000CFF8092201210420FFF7CAF80822022167
:101C40000420FFF7C5F83FA206210320FFF734F96F
:101C50003CA206210420FFF72FF93BA20721032015
:101C6000FFF72AF93AA207210420FFF725F968E0D7
:101C70002E20FFF735F92620FFF732F90020FFF775
:101C80002FF90020FFF72CF90720FFF729F903208F
:101C9000FFF726F90020FFF723F9FF20FFF720F9CF
:101CA0002F20FFF71DF906A8FEF720FD02E006A889
:101CB000FEF71CFD069810B907980028F7D064219C
:101CC0000698484300EB8000C0F35520800A059039
:101CD000C8210798484300EB8000C0F355204FF41B
:101CE000FA71C1EB902004900598FEF78CFA064635
:101CF0000022194BFEF718FA044622460B4617A19C
:101D000002A8FFF7E7FA0498FEF77DFA06460022DC
:101D1000114BFEF709FA044622460B460FA168460E
:101D2000FFF7D8FA02AA07210320FFF7C5F86A4691
:101D300007210420FFF7C0F84FF4FA60FEF7DEFD3C
:101D400000BF95E73A00000032372E333100000023
:101D500035362E373200000000002440252E316633
:101D60000000000000000000000000000000000073
:101D700000000000000000F8000000000000003338
:101D80003000000000100C06100C060000000000DF
:101D90000000000040C07840C0784000043F0404C8
:101DA0003F040400007088FC08300000001820FF89
:101DB000211E0000F008F000E018000000211C03C4
:101DC0001E211E0000F00888700000001E21232440
:101DD0001927211010160E0000000000000000005E
:101DE00000000000000000E01804020000000007EE
:101DF0001820400000020418E000000000402018F5
:101E000007000000404080F0804040000202010FC7
:101E100001020200000000F0000000000101011FAB
:101E200001010100000000000000000080B070000F
:101E3000000000000000000000000000000101019F
:101E4000010101010000000000000000003030002E
:101E50000000000000000000806018040060180608
:101E60000100000000E010080810E000000F102042
:101E700020100F00001010F8000000000020203F8C
:101E80002020000000700808088870000030282416
:101E900022213000003008888848300000182020B7
:101EA00020110E000000C02010F8000000070424DC
:101EB000243F240000F80888880808000019212021
:101EC00020110E0000E0108888180000000F11207B
:101ED00020110E0000380808C83808000000003F34
:101EE000000000000070880808887000001C222193
:101EF00021221C0000E010080810E0000000312240
:101F000022110F00000000C0C000000000000030DF
:101F10003000000000000080000000000000806031
:101F200000000000000080402010080000010204B2
:101F30000810200040404040404040000404040499
:101F40000404040000081020408000000020100855
:101F500004020100007048080808F000000000308A
:101F600036010000C030C828E810E0000718272418
:101F700023140B000000C038E0000000203C2302C6
:101F80000227382008F8888888700000203F202029
:101F900020110E00C030080808083800071820205B
:101FA0002010080008F808080810E000203F202052
:101FB00020100F0008F88888E8081000203F202033
:101FC0002320180008F88888E8081000203F200027
:101FD00003000000C030080808380000071820205F
:101FE000221E020008F808000008F808203F21011E
:101FF00001213F20000808F8080800000020203FC9
:102000002020000000000808F8080800C080808038
:102010007F00000008F888C028180800203F200131
:102020002638200008F8080000000000203F20208B
:102030002020300008F8F800F8F80800203F003FA2
:10204000003F200008F830C00008F808203F2000BA
:1020500007183F00E01008080810E0000F102020CB
:1020600020100F0008F808080808F000203F2101A0
:1020700001010000E01008080810E0000F182424F7
:1020800038504F0008F8888888887000203F20006A
:10209000030C302000708808080838000038202120
:1020A00021221C00180808F8080818000000203F2A
:1020B0002000000008F808000008F808001F202091
:1020C00020201F000878880000C838080000073862
:1020D0000E010000F80800F80008F800033C0700B3
:1020E000073C0300081868808068180820302C031B
:1020F000032C30200838C800C83808000000203FF2
:102100002000000010080808C838080020382621E0
:1021100020201800000000FE020202000000007FE4
:1021200040404000000C30C00000000000000001F2
:102130000638C00000020202FE00000000404040DD
:102140007F00000000000402020204000000000002
:10215000000000000000000000000000808080807F
:102160008080808000020204000000000000000067
:102170000000000000008080808000000019242200
:1021800022223F2008F8008080000000003F11203C
:1021900020110E000000008080800000000E112041
:1021A00020201100000000808088F800000E11201F
:1021B00020103F200000808080800000001F22222D
:1021C00022221300008080F0888888180020203F99
:1021D000202000000000808080808000006B9494AC
:1021E0009493600008F8008080800000203F210068
:1021F00000203F2000809898000000000020203F31
:1022000020200000000000809898000000C080801E
:10221000807F000008F8000080808000203F2402BA
:102220002D302000000808F8000000000020203FAA
:10223000202000008080808080808000203F20005F
:102240003F20003F8080008080800000203F2100F0
:1022500000203F200000808080800000001F2020A0
:1022600020201F00808000808000000080FFA120CF
:1022700020110E000000008080808000000E1120E0
:1022800020A0FF80808080008080800020203F216F
:102290002000010000008080808080000033242422
:1022A00024241900008080E0808000000000001FCE
:1022B000202000008080000000808000001F20207F
:1022C00020103F20808080000080808000010E3040
:1022D0000806010080800080008080800F300C03A1
:1022E0000C300F0000808000808080000020312EA4
:1022F0000E312000808080000080808080818E7080
:102300001806010000808080808080000021302C31
:102310002221300000000000807C0202000000004A
:10232000003F404000000000FF00000000000000EF
:10233000FF0000000002027C800000000040403FDF
:102340000000000000060101020204040000000079
:1023500000000000000040444444FC44464040FE6D
:10236000404044C8B82000000004040444427F22D6
:10237000212110130C14222140407800000000009D
:1023800000827C5252525252527C7E000000000069
:1023900000004121190F131121213F4545454545B5
:1023A000454101000080C024242C3424C4243C2452
:1023B00024322A2EC220000000004041A19149474A
:1023C000474D3525354D4745414040000000202010
:1023D000FE20202020F0909090FE909090F0000041
:1023E000000008080F04040000070404047F04042C
:1023F00004070000000000F01010108896929090E2
:10240000D0101010F80000000000007F0000000F46
:10241000040404040F0040407F000000000000FCA2
:1024200024242424FC0000FC24242424FC04000094
:102430000040300F01212161BF40300F01014141B7
:102440007F0000000000203848484848484ACC48EF
:1024500048484868180800000002020202020242CE
:1024600042623F0202020202020202000020400415
:102470000CE01000FC949494949494FC00000000F0
:102480000000687C43407E4242427E42427E42429D
:102490007E424000000000F828282828F82826243A
:1024A00028F83828282400000040388780804042DF
:1024B000452B3313332B46404040400000206244FC
:1024C0008C601000FC94545454945454FC0000004C
:1024D0000004347E0140424C58407F40407F5048C9
:1024E00044434200042500080000002004000000CE
:1024F000FC12000808250008040000200404000065
:082500000C13000800000000AC
:04000005080000ED02
:00000001FF
